:020000040800F2
:10000000804E00205D0200081F380008FD2F000808
:100010001D380008D110000803420008000000004D
:100020000000000000000000000000009D0100082A
:10003000BD15000800000000F9010008A53A0008FD
:1000400077020008770200087702000877020008AC
:10005000770200087702000877020008770200089C
:1000600077020008770200087702000825120008CE
:1000700077020008311200087702000877020008B2
:100080003D12000877020008770200087702000896
:10009000770200087702000877020008770200085C
:1000A000770200087702000877020008770200084C
:1000B000753B000877020008770200087702000805
:1000C000770200087702000877020008770200082C
:1000D00077020008C94000081D41000877020008A7
:1000E000770200087702000877020008770200080C
:1000F00077020008770200087702000877020008FC
:1001000077020008770200087702000877020008EB
:10011000553E0008613E000877020008770200089B
:1001200077020008770200084912000877020008E9
:1001300077020008770200087702000877020008BB
:1001400077020008770200087702000877020008AB
:10015000770200087702000877020008770200089B
:10016000770200087702000877020008770200088B
:1001700077020008770200087702000800000000FC
:100180007702000877020008DFF80CD000F038FB97
:1001900000480047F56C0008804E00202C4B196881
:1001A0000868B0E8F04F80F30988BFF36F8F4FF015
:1001B000000080F3118870470000000008480068C4
:1001C000006880F308884FF0000080F3148862B65E
:1001D00061B6BFF34F8FBFF36F8F00DF00BF00BF6B
:1001E00008ED00E0DFF80C00016841F470010160E7
:1001F000704700BF88ED00E0EFF30980BFF36F8F19
:10020000134B1A681EF0100F08BF20ED108A20E96A
:10021000F04F106009B44FF0500080F31188BFF325
:100220004F8FBFF36F8F09F09FFB4FF0000080F3FB
:10023000118809BC19680868B0E8F04F1EF0100F6B
:1002400008BFB0EC108A80F30988BFF36F8F704746
:100250009C010020EFF305807047000006488047AE
:1002600006480047FEE7FEE7FEE7FEE7FEE7FEE79B
:10027000FEE7FEE7FEE7FEE7593B000889010008BC
:100280002DE9F05F0546002092469B4688460646CB
:10029000814640241BE0284641464746224600F05E
:1002A000F4F853465A46C01A914110D311461846E5
:1002B000224600F0DBF82D1A67EB01084F46224674
:1002C0000120002100F0D2F817EB00094E41201E5A
:1002D000A4F10104DFDC484631462A464346BDE826
:1002E000F09F40EA01039B0703D009E008C9121FF1
:1002F00008C0042AFAD203E011F8013B00F8013BE0
:10030000521EF9D27047D2B201E000F8012B491E0B
:10031000FBD270470022F6E710B513460A460446A2
:100320001946FFF7F0FF204610BD2DE9FE4F81EA88
:10033000030404F0004421F0004100944FF0000B4E
:1003400023F0004350EA01045ED052EA03045BD07C
:10035000C3F30A54C1F30A552C44A4F2F3340194B4
:10036000A0FB0254C1F3130141F48011C3F3130342
:1003700043F4801301FB024400FB034E840A970AF6
:1003800044EA815447EA8357A4FB076802958D0A23
:1003900005FB07854FEA932C04FB0C542705029DAF
:1003A0004FEA065847EA1637B5EB08056EEB070C1F
:1003B000870E920E47EA811742EA8312A7FB0201D9
:1003C000B6EB0B0164EB00042B0D43EA0C335E1813
:1003D00044EB1C50DA465146E7FB0201C5F3130417
:1003E0004FEA0B3343EA14534FEA0432019C43EAC9
:1003F0000603A4F10C040294009CCDE900B400F0C3
:100400009AF803B0BDE8F08F00200146F9E700F04C
:10041000004230F000400AD0C10D01F56071C0F318
:10042000160042EA0151C2084007114370470020FC
:100430000146704701F0004330B421F0004150EA1A
:10044000010206D00A0DA2F56072C1F31301002A61
:1004500002DC30BC00207047440F44EAC104C100F4
:10046000E01830BC00EBC25000F01FB8202A04DBBB
:10047000203A00FA02F1002070479140C2F12003B7
:1004800020FA03F3194390407047202A04DB203AF6
:1004900021FA02F00021704721FA02F3D040C2F1A4
:1004A000200291400843194670470029A8BF7047B1
:1004B000401C490008BF20F00100704710B4B0FA9A
:1004C00080FC00FA0CF050EA010404BF10BC704735
:1004D00049B1CCF1200421FA04F411FA0CF118BF4F
:1004E000012121430843A3EB0C01CB1D4FEA00611E
:1004F0004FEA102042BF002010BC704700EBC350F1
:1005000010440029A4BF10BC7047401C490008BF1C
:1005100020F0010010BC704710B5141E73F10004E8
:1005200008DA401C41F1000192185B411A4301D1E5
:1005300020F0010010BD2DE9F04D92469B4611B10F
:10054000B1FA81F202E0B0FA80F220329046FFF771
:100550008DFF04460F4640EA0A0041EA0B0153466C
:100560005A46084313D0114653EA010019D0C8F186
:1005700040025046FFF789FF05460E465046594651
:100580004246FFF773FF084305D0012004E02046F0
:100590003946BDE8F08D0020054346EAE0762C435D
:1005A00037430A986305E40AA0EB08000022FD0A1D
:1005B00044EA47540A3002D500200146E9E7010524
:1005C00010196941DDE9084500196941BDE8F04DA0
:1005D000A2E72DE9FE4F804681EA0300C00F0C46DA
:1005E000009021F0004123F00045B8EB0200A94142
:1005F00005D24046214690461C460B46024623F053
:100600000040104347D0270DC7F30A00C3F30A5137
:100610000290401A019040286BDAC3F3130040F4B3
:10062000801B0098924620B10023D2EB030A63EBB3
:100630000B0B01985946C0F140025046FFF716FFD8
:1006400006460D4650465946019A00F0EBF810EB6D
:1006500008006141002487EA115284EAE7731A43D3
:1006600040D0009A62B3019A012A4FEA075215DC82
:10067000001B61EB02014FF0004202EA0752CDE994
:100680000042001C41F5801132462B46FFF753FF14
:1006900003B0BDE8F08F40462146F9E7001B61EB4F
:1006A0000201001C41F5801300185B412018A2F5DF
:1006B000001747EB030140EAD570B6196D4111E010
:1006C0006D084FEA360645EAC0754FEA0752001B2F
:1006D00061EB0201001C41F5801149084FEA30002E
:1006E0000019514132462B4603B0BDE8F04FFFF7E9
:1006F00013BF0098012240000023D0EB020263EBFD
:10070000E073009821464FEAE074B8EB000061EB1B
:100710000401E9E783F000435BE781F0004158E71B
:100720002DE9F04D81EA030404F0004B21F000456F
:1007300014464FF0000A23F0004150EA050220D091
:1007400054EA01021DD0C5F30A570246C5F313034C
:10075000C1F31300C1F30A5640F4801543F480132B
:10076000A7EB0608101BD64608F2FD3873EB050010
:1007700002D308F1010801E092185B41B8F1000FC3
:1007800003DA00200146BDE8F08D00204FF480110F
:10079000064684460EE0171B73EB050705D3121BB4
:1007A00063EB050306434CEA010C49084FEA3000AD
:1007B00092185B4150EA0107EDD152EA030012D0D2
:1007C00082EA040083EA0501084305D0101BAB410F
:1007D00006D20122002306E000224FF0004302E08F
:1007E0006FF0010253101AEB06004CEB085110EBAE
:1007F0000A0041EB0B01BDE8F04DFFF78DBE000094
:10080000064C074D06E0E06840F0010394E807005D
:1008100098471034AC42F6D3FFF7BAFCACBF0008DF
:10082000CCBF0008202A06DBCB17203A41FA02F0A1
:1008300043EAE07306E041FA02F3D040C2F120023D
:1008400091400843194670472DE9F04D00231A46A0
:100850001B1A8A4103DB00200146BDE8F08DC1F37D
:100860000A52C1F3130141F480154FF0000BD10778
:1008700002D100186D41521E0027044640F2FF11BC
:10088000384601EB620A3E468046024600204FF49D
:100890008011FFF7FAFDC2197141BB1846EB010048
:1008A000B4EB030C75EB000C04D3E41A65EB000504
:1008B00017460E46241908F101006D418046342880
:1008C000E3DDF91946EB0600091BA84103D24FF0FE
:1008D000FF32134601E0002213461BEB070046EBF4
:1008E0000A51BDE8F04DFFF717BE70B58C1810F82F
:1008F000015B15F0070301D110F8013B2A1106D165
:1009000010F8012B03E010F8016B01F8016B5B1E7E
:10091000F9D12B0705D40023521E0DD401F8013B59
:10092000FAE710F8013BCB1A921C03E013F8015BC5
:1009300001F8015B521EF9D5A142D8D3002070BD49
:1009400070470000464910B54A6822F440324A60B8
:100950004A6843681A434A6001684A6822F4807210
:100960004A6001684A68036942EA03224A600168F2
:100970004A6822F040724A6001684A6883681A43F4
:100980004A6001688A6822F400628A6001688A68A5
:10099000C3681A438A60816A6FF07062D14201684D
:1009A0008A6822F070628A6001688A680CD0836A63
:1009B0001A438A6001688A6822F040528A6001689E
:1009C0008A68C36A1A4301E022F040528A600168D3
:1009D0008A6822F002028A6001688A68037E42EA1D
:1009E00043028A6090F82010002901684A680FD0FD
:1009F00042F400624A6001684A6822F460424A6038
:100A000001684A68174C436A04EB43331A4301E018
:100A100022F400624A600168CA6A22F47002CA6263
:100A20000168CA6A838B104C04EB03531A43CA62F1
:100A300001688A6822F400728A6001688A6890F806
:100A4000303042EA43228A6001688A6822F4806278
:100A50008A6001688A68406942EA8020886010BD27
:100A60000023014000E0FFFF0000F0FF00F032BB78
:100A700070B548480168B1F9020000EE100AF8EEBE
:100A8000C00A9FED451A454C454A80EE810A10EE9A
:100A9000100A84ED010A904202DDB3EE040A06E07A
:100AA00010EE100A3F4A904201D9BBEE040A84EDD1
:100AB000010AB1F90600DFED3C1A00EE900A3B494D
:100AC000B8EEE01AC1EE210A94ED571A70EE810AD1
:100AD00010EE900AC4ED570A884202DDDFED340AB9
:100AE00006E0F5EEC00AF1EE10FA01D2DFED310AB0
:100AF000314DC4ED570A84ED110A286890ED010AC2
:100B0000264884ED120A443006F0AAF994ED1B0A37
:100B100084ED3B0A2868B0F90E0000EE100A1F4869
:100B2000B8EEC00AEC3084ED3C0A06F099F994ED79
:100B3000572A94ED451A94ED530AD4ED370A72EE14
:100B4000411A32EE011A1D4871EEC02A31EE402AD8
:100B500031EE001A31EE800A72EEA02A32EE602ADF
:100B600031EE201A30EE600AFDEEE22ABDEEC22A16
:100B7000BDEEC11A12EE901ABDEEC00A018012EE4F
:100B8000101A418011EE101A818010EE101AC180E7
:100B900070BD000098000020000004420004002006
:100BA0000000A0410000A0C10000164400007A44EB
:100BB00000007A4400000000E40000206A010020E8
:100BC0002DE9F04116462DED0A8B0F468046B3F90C
:100BD0000030DDE9131000EE103ADDE91152F8EEB5
:100BE000C00AFE4CDDF840C0C4ED0E0ABCF900306E
:100BF00000EE103AB8EEC00A84ED0F0AB5F90030E5
:100C0000032593FBF5F31BB203EB430300EE103A0D
:100C1000B8EEC00A84ED100AB2F9002000EE102AE6
:100C2000B8EEC01A84ED111AB1F9001000EE101AD6
:100C3000B8EEC00A84ED120AB0F9000021EE000AF5
:100C400001EE900AF8EEE11AC4ED131A20EE210A23
:100C5000B5EEC00AF1EE10FA7DD0E14D297B9FED93
:100C6000E18AFDEEE00AB0EE480A10EE900A00B20A
:100C700006F012F884ED0E0AD4ED0F0A297BB0EECF
:100C8000480AFDEEE00A10EE900A00B206F004F801
:100C900084ED0F0AD4ED100A297BB0EE480AFDEE70
:100CA000E00A10EE900A00B205F0F6FF94ED0E1A7D
:100CB000DFEDCD0A21EE201A20EE200A84ED0E1A77
:100CC00094ED0F1A21EE201A84ED0F1A84ED100A0C
:100CD000D4ED110A297BB0EE000AFDEEE00A10EE19
:100CE000900A00B205F0ECFF84ED110AD4ED120A6F
:100CF000297BB0EE000AFDEEE00A10EE900A00B289
:100D000005F0DEFF84ED120AD4ED130A297BB0EE64
:100D1000000AFDEEE00A10EE900A00B205F0D0FFE6
:100D2000F0EE400AC4ED130A94ED110A94ED121A84
:100D300020EE000A01EE010A00EEA00A05F096FF7F
:100D400084ED070AD4ED110A60EE802AC4ED112A61
:100D5000D4ED120A00E05CE160EE804AB0EE008A59
:100D6000C4ED124AD4ED130A20EE803A84ED133A12
:100D700094ED040AD4ED060AD4ED031A94ED051A95
:100D800020EE202A01EEC12A22EE084A21EE802A16
:100D900084ED084A01EE202A22EE085A21EEA12A0B
:100DA00084ED095A00EE402A01EE412A00EEA02A05
:100DB00084ED0A2A64EE823A43EE453A23EE043A81
:100DC00002EEC23A62EE852AC4ED0B3A44EEC42A22
:100DD00084ED0C3AC4ED0D2A94ED142A94ED015AD9
:100DE00003EE852A84ED142A94ED154A03EE054A94
:100DF00084ED154AD4ED164A42EE854AC4ED164AF2
:100E0000D4ED0E5A94ED005A45EE235A35EE822A5F
:100E100084ED0E2AD4ED0F3A45EE033A33EE843AD0
:100E200020EE424A84ED0F3AD4ED103A01EE434AE7
:100E300061EE835A45EE223AB0EE615A73EEA42A6F
:100E400061EE824AC4ED102AC4ED171A41EE224A1F
:100E500084ED180A00EEE24A84ED191AC4ED1A0A6C
:100E6000D4ED023A40EEC34A40EE625A04EE235AF1
:100E7000B0EE404A04EEA34A40EE825A84ED035A93
:100E800084ED044A61EEA21AF0EE414A45EEA34A0F
:100E900040EE031A25EE050AC4ED054A04EE040AE5
:100EA00041EE421A04EEA40A41EEA30AC4ED060A7A
:100EB00000EEA00A05F0DAFE84ED070AD4ED030A7D
:100EC00020EE80BA84ED03BAD4ED040A60EE808A85
:100ED000C4ED048AD4ED050A20EE809A84ED059ACB
:100EE000D4ED060A60EE809A2BEE0B0AC4ED069A4A
:100EF00008EEE80A09EE490A09EEA90A10EE100AFE
:100F0000FFF785FA29EE080A6BEE080A41EC1A0B86
:100F100020EE290A00EEA80A10EE100AFFF777FA71
:100F200041EC100BB0EE4A1AF0EE6A1A03F0C0FC66
:100F30009FED2EBB51EC100B53EC1B2BFFF7F5F97B
:100F4000FFF778FA386094ED040AD4ED060A94EDC0
:100F5000051A20EE080A20EE200AD4ED030A60EEFE
:100F6000880A00EEC10A10EE100AFFF750FA41ECB1
:100F7000100B03F081F99FED1F1B51EC100B53EC8C
:100F8000112BFFF7D2F9FFF755FAC8F8000094EDDE
:100F900003CAD4ED048AD4ED05AA2CEE0C0A94ED14
:100FA00006AA08EEA80A0AEEEA0A0AEE4A0A10EEB3
:100FB000100AFFF72CFA28EEAA0A41EC190B0CEEE6
:100FC0000A0A20EE080A10EE100AFFF720FA41EC98
:100FD000100BB0EE491AF0EE691A0FE00400002081
:100FE000980300200000FA44728A8E3C00000060E2
:100FF00066A64C400000006066A64CC003F058FC9A
:1010000053EC1B2B51EC100BFFF78FF9FFF712FA83
:1010100030600020BDEC0A8BBDE8F0812DE9FE4F69
:101020001546DDE90C9A0E4607460C221C46694619
:10103000104602F01BF9BDF80080BDF802C0BDF8F3
:101040000430BDF80620BDF80810BDF80A00A4F869
:101050000080A9F800C0AAF800303A8031802880CA
:10106000BDE8FE8F38B5194804F0E4F903F056FEE8
:10107000164803F017FE044603F050FE24BB01207F
:101080008DF800000146114A684604F061FA03F049
:1010900045FE0E4802F035FC00208DF800000B4A9A
:1010A0000121684604F054FA03F038FE074802F0C4
:1010B000FEFB02208DF80000044A0121684604F07E
:1010C00047FA044603F02AFE204638BD9803002064
:1010D000FEE7000030489FED2F0AF7EE001A80ED82
:1010E000570A80ED110AC0ED151A80ED160ADFEDE2
:1010F0002B0A80ED170A9FED2A1AC0ED1D0A80ED1C
:101100001E1A80ED1B0A80ED3B0AC0ED3F1A80EDF0
:10111000400A80ED410AC0ED470A80ED481A80ED93
:10112000450A80ED1F0A80ED230A80ED240A80ED38
:10113000250AC0ED2B0A80ED2C1A80ED290A80EDDE
:10114000490A80ED4D0A80ED4E0A80ED4F0AC0ED50
:10115000550A80ED561A80ED530A80ED030A80EDA2
:10116000070A80ED080A80ED090AC0ED0F0A80ED3C
:10117000101A80ED0D0A80ED2D0A80ED310A80ED08
:10118000320A80ED330AC0ED390A80ED3A1A80ED5B
:10119000370A7047000000000004002000001644D9
:1011A00000009644154810B5807908B9FFF760FC37
:1011B0001348B0F90210B0F9000000F02FFA1048FF
:1011C000001DB0F90630B0F90420B0F90210B0F9F2
:1011D000000000F0F5F90B4C0122D102204600F08E
:1011E00029FE00224FF48041204600F023FE012218
:1011F000BDE810405102044800F01CBE140100205C
:101200006601002000080240000C02400021014855
:1012100000F0B2BBFC070020014800688168084765
:1012200008010020014800F0EFBB0000300A002058
:10123000014800F0E9BB0000D0090020014800F09F
:10124000E3BB0000F00A0020014800F0DDBB000015
:10125000900A00202DE9F04F85680024099E802D1A
:1012600018D0894DC563894D456490F83450012DDF
:1012700015D0012580F8345090F83550012D10D04C
:10128000002180F834100224002180F83410204618
:10129000BDE8F08F4FF4807141650120F8E702202E
:1012A000F6E7022580F835500025456505682F686A
:1012B00047F480272F6005682B6103685E608368B0
:1012C000402B03682AD099600168CA60714D704E46
:1012D000704FDFF8BC81DFF8B891DFF8B8A1DFF814
:1012E000B4B1EA14DFF8A8E1016818363037930288
:1012F000A9F148090AF1600A0BF1180BAEF1300EA2
:101300004FF0006C41452DD9A94205D0494503D085
:10131000514501D0B14205D1202220E09A600268F7
:10132000D160D3E759451AD0714518D0594D783559
:10133000A94214D0564D3035A94210D0B9420BD035
:10134000534A183A914207D0524A9032914203D000
:101350004F4A4832914201D11A4600E062464C4958
:101360004C392EE0DFF82C8108F1A80841452AD934
:10137000A94205D0494503D0514501D0B14201D120
:1013800020221CE059451AD0714518D0414D7835BE
:10139000A94214D03E4D3035A94210D0B9420BD0ED
:1013A0003B4A183A914207D03A4A9032914203D0D0
:1013B000374A4832914201D11A4600E06246344928
:1013C00050390A605AE0DFF8CC8008F148084145FE
:1013D0002AD9A94205D0494503D0514501D0B1428F
:1013E00001D120221CE059451AD0714518D0294D51
:1013F0007835A94214D0264D3035A94210D0B942D3
:101400000BD0234A183A914207D0224A9032914297
:1014100003D01F4A4832914201D11A4600E0624689
:101420001C491039CA6029E0A94205D0494503D0BA
:10143000514501D0B14201D120221CE059451AD0BA
:10144000714518D0134D7835A94214D0104D303560
:10145000A94210D0B9420BD00D4A183A914207D098
:101460000C4A9032914203D0094A4832914201D14C
:101470001A4600E06246074910398A6001680A6826
:1014800042F001020A60FFE6A15A0008B95A0008BA
:10149000586402401060024001681823CAB2103A32
:1014A000B2FBF3F2054B6FF30901032A9B5CC365A2
:1014B00000D9091D816508467047000078BE000804
:1014C00010B5014600208B698A6A4FF0C07453B191
:1014D000B3F5005F15D072B1012A0CD0022A0AD0F0
:1014E000032A09D104E01AB1012A06D0022A03D145
:1014F000C96AC90100D5012010BDC96AA142FAD04C
:1015000010BD002AF7D0012AF2D0022AF3D0032A14
:10151000F3D010BD70B590F834500024012D0CD0DC
:10152000012580F8345090F835600025012E06D052
:1015300080F834500224204670BD022070BD02267F
:1015400080F83560456505682E6826F480262E6093
:1015500005686B608368402B036808D09960016858
:10156000CA600068016841F001010160E3E79A6028
:101570000268D160F5E70000094810B58168884726
:1015800002F04EF9FFF7DCF9FFF740FE02F0A8FD8C
:1015900002F0D0FD02F0FAFDBDE8104002F014BEEA
:1015A000E400002001680A68D20604D5C968C906AB
:1015B00001D507F0F3BF704700F03CB870477047A3
:1015C00010B54FF49661884201DD084604E000281A
:1015D00002DA002002460CE0884201DD0A4602E001
:1015E000021E00DA0022884204DC002801DA002111
:1015F00000E00146084C00F57A732360231D00F5D6
:1016000096601860181D02F57A720260001D01F5DF
:101610007A71016010BD000034080040044A00F5F2
:101620007A701060101D01F57A710160704700003A
:10163000340400401B489FED1A0A002180ED570A30
:1016400080ED010A80ED020A80ED000A80ED110AAA
:1016500080ED190A80ED1B0A80ED3B0A80ED430AFC
:1016600080ED450A80ED1F0A80ED270A80ED290AEA
:1016700080ED490A80ED510A80ED530A80ED030A9E
:1016800080ED0B0A80ED0D0A80ED2D0A80ED350A04
:1016900080ED370A0448018041808180C180704715
:1016A00000000000000400206A01002078B500243A
:1016B000009490F83C20012A19D0012280F83C20A7
:1016C0000A6807230568092A13D9EE680A3A02EB6B
:1016D000420293409E43EE600B788A680A3B03EB1C
:1016E00043039A400368DD682A43DA6010E0022071
:1016F00078BD2E6902EB420293409E432E610B7827
:101700008A6803EB43039A4003681D692A431A6100
:101710004A681F23072A13D205686E6B521E02EB1C
:10172000820293409E436E630B790A885B1E92B2DD
:1017300003EB83039A4003685D6B2A435A6327E0F7
:1017400005680D2A12D22E6BD21F02EB8202934043
:101750009E432E630B790A88DB1F92B203EB83034F
:101760009A4003681D6B2A431A6311E0EE6A0D3A32
:1017700002EB820293409E43EE620B790A880D3B96
:1017800092B203EB83039A400368DD6A2A43DA626C
:10179000164B0568144A9D4206D10D68122D03D1DF
:1017A000556845F48005556005689D4218D10B6861
:1017B000102B01D0112B13D1536843F40003536055
:1017C000096810290CD10A490A4A0968B1FBF2F1EB
:1017D00001EB8101490000E0491E00910029FBD185
:1017E00080F83C40002078BD0023014000200140EB
:1017F0009801002040420F0070B504004FF0000532
:1018000003D0206C002610B107E0012070BD2046F7
:1018100000F01CF8666484F83C60206CC00610D4AC
:10182000206C20F4885040F0020020642046FFF72E
:1018300089F86664206C20F0020040F0010020640A
:1018400000E0012584F83C60284670BD10B586B0E4
:10185000044614216846FEF75DFD11492068884260
:101860001CD110480021026842F4807202600068B6
:1018700000F4807005900B481438026842F00402AE
:101880000260006800F00400059001200090032031
:10189000CDE901016946044800F0F0F906B010BD39
:1018A00000200140443802400008024070B54379EE
:1018B000012B1AD0012646710223037105682C689A
:1018C00040F6FE7393409C43D1E900310B439340B3
:1018D00023432B6001680B68C0249440A3430B6032
:1018E000067100214171084670BD022070BD70B5BF
:1018F000040003D02079002510B105E0012070BD5F
:101900006571204600F008F8022020712561012051
:101910002071002070BD000010B586B0044614216F
:101920006846FEF7F7FC1149206888421CD1104830
:101930000021026842F000520260006800F000508E
:1019400005900B481038026842F0010202600068FE
:1019500000F001000590102000900320CDE9010166
:101960006946044800F08AF906B010BD00740040D2
:10197000403802400000024030B54279012A16D0BA
:10198000012242710223037103681D6802FA01F407
:1019900025431D60002901680B680AD00C6803F418
:1019A000802304F46014B3F5802F0FD015E00220DB
:1019B00030BD0C6803F0040304F03804042B0CD190
:1019C000382C0AD14B6843F0010305E0B4F5601FE1
:1019D00003D14B6843F002034B6002710021417157
:1019E000084630BD90F83510022903D080214165AA
:1019F00001207047052180F835100068016821F04A
:101A000001010160002070472DE9F84304464FF0C2
:101A10000009CDF8009063484FF41651A56D006899
:101A2000B0FBF1F72E6894F85C10082000FA01F181
:101A300031420FD021680A6852070BD50A6822F09C
:101A400004020A6094F85C108840A860606D40F061
:101A50000100606594F85C104FF0010808FA01F08D
:101A6000304208D021684969090604D5A860606D34
:101A700040F00200606594F85C1004208840304219
:101A800008D021680968890704D5A860606D40F016
:101A90000400606594F85C1010208840304218D033
:101AA00021680968090714D5A860206801684903FE
:101AB00004D50068000308D5A16C07E00168C905DA
:101AC00003D4016821F008010160216C09B12046AE
:101AD000884794F85C1020208840304231D021683B
:101AE0000968C9062DD5A86094F835000528206836
:101AF000016806D0490347D5006800031DD4616C16
:101B00001CE021F0160101602068416921F080018C
:101B10004161206C08B9A06C20B12068016821F0F7
:101B20000801016094F85C103F208840A86084F8A8
:101B3000349084F83580216D1FE0E16B09B12046B7
:101B40008847606D00282BD0606DC00714D0052039
:101B500084F835002068016821F0010101600098D7
:101B6000401C0090B84203D820680068C007F6D136
:101B700084F8349084F83580E16C002910D001B0ED
:101B80002046BDE8F04308470168C905D5D401687F
:101B900021F01001016084F8349084F83580CCE79E
:101BA000BDE8F883980100202DE9F041044600F0DB
:101BB00047F906465CB1002584F83450022084F8C9
:101BC00035002068016821F0010101600DE001206D
:101BD000BDE8F08100F034F9801B052805D92020EC
:101BE0006065032084F83500F2E720680068C007CC
:101BF000F0D12268116820480140D4E9010318435C
:101C0000D4E903363343184363691843A36918437F
:101C1000E3691843236A18430843616A042903D11E
:101C2000D4E90B1319430843106020684069666AC1
:101C300020F0070130460E43012704280CD1A06A8A
:101C40000643E06A40B12046FFF73AFC20B140204D
:101C5000606584F83570BAE7206846612046FFF772
:101C60001BFC94F85C203F2191408160656584F8FD
:101C700035700020ACE700003F8010F02DE9F84FF0
:101C800000224FF0010803254FF00F0E0B6808FAF1
:101C900002F42340A3426ED14E68012E05D0022EDD
:101CA00003D0112E01D0122E12D186684FEA420CB9
:101CB00005FA0CF7BE43CF6807FA0CF73743876085
:101CC0004668A6430C79C4F300149440344344603E
:101CD000C668570005FA07FC8C6826EA0C06BC406B
:101CE0003443C4604C68022C01D0122C13D1D408A8
:101CF00000EB8404A346D4F8209054074FEAD46A3A
:101D00000EFA0AF629EA06090E6906FA0AF646EA02
:101D10000906CBF8206006680C7926EA0C0604F068
:101D20000304BC40344304604C68E40065D5364C81
:101D3000266846F480462660246822F0030604F4F0
:101D400080440094314C3444A446D4F808489607A3
:101D5000370F0EFA07F6B4432D4EB04201D10026DC
:101D600024E02C4EB04201D101261FE02A4EB042A1
:101D700002D102261AE040E0284EB04201D10326EB
:101D800014E0274EB04201D104260FE0254EB042A8
:101D900001D105260AE0244EB04201D1062605E015
:101DA000224EB04201D1072600E00826BE4026435D
:101DB000CCF808681E4E34684F689C43FF0300D57A
:101DC0001C4334601A4C241D26684F689E43BF0391
:101DD00000D51E432660164E083634684F689C4373
:101DE000FF0200D51C433460114E0C3634684F6836
:101DF0009C43BF0200D51C433460521C102AFFF4E0
:101E000045AFBDE8F88F0000443802400030014083
:101E1000000002400004024000080240000C0240A2
:101E2000001002400014024000180240001C024052
:101E3000003C01400AB1816170470904FBE70000E2
:101E400001488068704700008C01002002488168CA
:101E500002781144816070478C0100200B4810B556
:101E6000016841F400710160016841F48061016022
:101E7000016841F480710160032000F08DF80020BA
:101E800000F006F800F03EF8002010BD003C0240D3
:101E900010B5014688B000221C2000F05DF81C201F
:101EA00000F04CF814480024016841F00101016081
:101EB000006805A900F001000690684600F018F9D6
:101EC00000F036F90D494000B0FBF1F10C484FF03D
:101ED0008042491E026040F2E732C0E90324C0E9B3
:101EE000011400F06FFB10B1012008B010BD0448D0
:101EF00000F0A4FBF9E700004038024040420F0028
:101F0000500B00200C4882B0016841F48041016010
:101F1000006800F4804000900748001F016841F00D
:101F2000805101600068002200F0805000900F2175
:101F3000901E02B000F010B844380240002809DBBF
:101F400000F01F02012191404009800000F1E020D3
:101F5000C0F8001170470000F0B40E4B1B680C462F
:101F6000C3F30223C3F10705042D00D90425191D6D
:101F7000072901D2002300E0DB1E012606FA05F145
:101F8000491E214099409E40761E16403143F0BCC8
:101F900002F050B90CED00E0064900F007020868B5
:101FA0004FF6FF03184040EA0220034A104308603E
:101FB000704700000CED00E00000FA052DE9F04745
:101FC0000E46050065D0DFF81481D8F80000F7B29E
:101FD00000F00F00B04207D288F80070D8F8000077
:101FE00000F00F00B04254D128683D4C810712D553
:101FF000400703D5206840F4E050206028780007AF
:1020000003D5206840F4604020602068A96820F073
:10201000F000084320602878C0072DD03049686858
:102020000839012812D0022813D0032811D00968DA
:10203000890700292DDA216821F00301014321607D
:10204000FFF7FEFE814641F2883A0EE009688903F7
:10205000EFE709688901ECE7FFF7F2FEA0EB090161
:10206000514502D90320BDE8F0872068696800F077
:102070000C00B0EB810FEFD1D8F80010404601F012
:102080000F01B14207D90770006800F00F00B0429D
:1020900001D00120E7E72878400705D52068E968E6
:1020A00020F4E050084320602878000706D5206817
:1020B000296920F4604040EAC100206000F058F82F
:1020C0002168084AC1F30311515CC8400649086001
:1020D00006480068FFF7DCFE0020C4E7003C024031
:1020E0000838024080BE00089801002090010020BE
:1020F0000F2202600C4A136803F003034360136865
:1021000003F0F0038360136803F4E053C3601268C4
:102110004FF4E05303EAD20202610448006800F081
:102120000F0008607047000008380240003C024081
:102130000448054900680968044AC1F38221515CDA
:10214000C8407047980100200838024090BE00083F
:102150000448054900680968044AC1F34231515CEA
:10216000C8407047980100200838024090BE00081F
:10217000154810B5006810F00C02144813D014492B
:10218000042A0FD0082A0ED10F4C241F226823687E
:1021900002F03F025B0207D52068C0F38810A0FB65
:1021A000010106E0084610BD2168C1F38811A1FBBA
:1021B00000010023FEF764F82168C1F30141491CC6
:1021C0004900B0FBF1F010BD083802400024F400D3
:1021D00040787D012DE9F84F04006ED02078DFF8BB
:1021E0003C93C007A9F104054AD009F10400016835
:1021F000C1F38101012908D00068C0F381000228E1
:102200000AD1D9F80000400206D52868800337D5E6
:1022100060680028E1D033E06068B0F5803F10D0FE
:10222000B0F5A02F286810D020F4803028602868EE
:1022300020F4802028606068A8B1FFF701FE064600
:102240000DE0286840F48030F4E740F480202860F6
:10225000F7E700BFFFF7F4FD801B642873D82868F8
:102260008003F7D50CE0FFF7EBFD064605E000BF65
:10227000FFF7E6FD801B6428F0D828688003F7D4B8
:102280002078DFF89C8280074FF0000A3ED5A348F3
:10229000001D016811F00C0F08D00068C0F3810028
:1022A00002280BD1D9F80000400207D42868800723
:1022B00016D5E068012800D112E02BE1E068B8B142
:1022C0000120C8F80000FFF7BBFD064605E000BF8F
:1022D000FFF7B6FD801B0228C0D828688007F7D515
:1022E0002868216920F0F80040EAC10028600DE06C
:1022F000C8F800A0FFF7A4FD064604E0FFF7A0FD24
:10230000801B02281FD828688007F7D42078000790
:1023100022D5824E83486169703671B10121016016
:10232000FFF78EFD074604E0FFF78AFDC01B022879
:1023300009D830688007F7D50EE0C0F800A0FFF795
:102340007FFD074605E082E0FFF77AFDC01B02280B
:102350007DD830688007F7D42078400768D5DFF84B
:10236000BCB100270BF13C0BDBF80000C0000BD424
:10237000DBF8001041F08051CBF80010DBF80000D2
:10238000012700F080500090674E3068C00510D4DF
:10239000306840F480703060FFF752FD009005E037
:1023A000FFF74EFD0099401A022850D83068C0054A
:1023B000F6D55A4EA0686C3601280FD00528306833
:1023C00010D020F001003060306820F00400306050
:1023D000A068B8B1FFF734FD00900FE0306840F01E
:1023E0000100F4E740F004003060F7E7FFF728FD54
:1023F0000099411A41F28830814266D830688007DE
:10240000F4D50EE0FFF71CFD009007E0FFF718FD84
:102410000099411A41F28830814256D830688007CD
:10242000F4D42FB1DBF8001021F08051CBF800106C
:10243000A069C8B33949091D0968C1F3810102299E
:102440004AD00228504607D0C8F8600000E03CE0BF
:10245000FFF7F6FC04463BE04746C8F86000FFF78C
:10246000EFFC064605E000BFFFF7EAFC801B0228F0
:102470002BD828688001F7D4D4E907010843A16A62
:102480002A4A490802EB0141626A41EA8211084383
:1024900094F82C1040EA0161C9F800100120386658
:1024A000FFF7CEFC044606E036E000BFFFF7C8FCAD
:1024B000001B022809D828688001F7D52CE000BF4E
:1024C000FFF7BEFC001B022802D90320BDE8F88FED
:1024D00028688001F4D41FE00128F7D0D9F8000063
:1024E000E26900F48001914214D1226A00F03F01B8
:1024F00091420FD147F6C071626A0140914209D101
:10250000A26A00F44031914204D1E16A00F07060A7
:10251000884201D00120D9E70020D7E704380240E3
:1025200000004742800E4742007000400000FFFF5D
:102530007047704770B590F83C20012A32D00124D2
:1025400080F83C40022280F83D2003685A689D686C
:1025500022F070060A6832435A60134B02689A42AE
:1025600014D0B2F1804F11D0104B9A420ED0104BC4
:102570009A420BD00F4B9A4208D00F4B9A4205D08B
:102580000E4B9A4202D00E4B9A4204D1496825F074
:1025900080031943916080F83D40002180F83C1091
:1025A000084670BD022070BD0000014000040040DC
:1025B00000080040000C00400004014000400140C1
:1025C0000018004010B5040003D094F83D0010B18D
:1025D00007E0012010BD002084F83C00204600F0F8
:1025E0000DF8022084F83D00211D206801F0C8FA92
:1025F000012084F83D00002010BD000008B50C4A01
:1026000001680C48914207D1016841F00201016064
:10261000006800F0020009E0074A914207D1016812
:1026200041F004010160006800F00400009008BD62
:102630000004004040380240000800400168CA68B9
:1026400042F00102CA600068816801F007010629B2
:1026500003D0016841F0010101600020704770B5AE
:10266000044690F83C00012817D0012584F83C501E
:10267000022084F83D002068826822F0770222F46C
:102680007F4282600868502830D00DDC20284DD071
:1026900005DC98B310283BD148E0022070BD3028FB
:1026A00044D0402834D139E0602828D0702806D0A2
:1026B000B0F5805F2CD0B0F5005F29D10AE0CB687F
:1026C000D1E90121206801F0CCFA2068816841F04D
:1026D000770109E0CB68D1E90121206801F0C1FA56
:1026E0002068816841F48041816011E0CA684968CE
:1026F000206801F08BFB5021206807E016E0CA68D3
:102700004968206801F093FB6021206801F0B3FA6A
:1027100084F83D50002084F83C0070BDCA684968C8
:10272000206801F073FB40212068EFE72268014632
:102730001046EBE72DE9F0410D46040003D094F874
:102740003D0018B108E00120BDE8F081002084F8C8
:102750003C00204600F03AF8022084F83D00206852
:10276000816844F2070291438160211D206801F0D5
:1027700007FA226890689169166A2B68AF6903436B
:1027800040F20330814341EA0721A868EF6908431A
:102790004FF6FC418843E96840EA07200143286975
:1027A0002F6A000140EA0730084369686D6926F026
:1027B000AA0646EA051529439360226890612068BD
:1027C0000162012084F83D000020BDE710B586B00D
:1027D000044614216846FDF79DFD13492068884290
:1027E00020D112480021026842F001020260006814
:1027F00000F0010005900D481438026842F0100204
:102800000260006800F0100005904FF42060009016
:10281000122001900120CDE902010490694604488C
:10282000FFF72CFA06B010BD00000140443802400A
:1028300000100240704770B50446006801694FF00F
:102840000005C943890715D4C168C943890711D454
:10285000E91E0161012020772068806980072046F9
:1028600002D0FFF7E7FF04E000F0DAF8204600F0BE
:102870005CF9257720680169C943490717D4C16805
:10288000C943490713D46FF0040101610220207786
:102890002068806910F4407F204602D0FFF7CAFF0D
:1028A00004E000F0BDF8204600F03FF925772068ED
:1028B0000169C943090716D4C168C943090712D47D
:1028C0006FF008010161042020772068C06980074B
:1028D000204602D0FFF7AEFF04E000F0A1F820464A
:1028E00000F023F9257720680169C943C90617D488
:1028F000C168C943C90613D46FF0100101610820F3
:1029000020772068C06910F4407F204602D0FFF78E
:1029100091FF04E000F084F8204600F006F92577E6
:1029200020680169C943C90708D1C168C943C907FB
:1029300004D1891E0161204600F01AF9206801695E
:10294000C943090609D4C168C943090605D46FF013
:10295000800101612046FFF7EBFD20680169C94352
:10296000490609D4C168C943490605D46FF040013E
:102970000161204600F003F920680169C943890616
:102980000BD4C168C943890607D46FF020010161E7
:102990002046BDE87040FFF7CCBD70BD10B586B0D5
:1029A000044614216846FDF7B5FC2368174C002146
:1029B00017480222A34210D1036843F001030360C9
:1029C000006800F001000590C0200090CDE90121D1
:1029D000CDE9031269460F4813E00F4CA34212D110
:1029E000036843F008030360006800F008000590E6
:1029F0004FF470400090CDE90121CDE90312694602
:102A00000648FFF73BF906B010BD00000004004087
:102A1000303802400000024000080040000C024034
:102A2000704770B5044690F83C000D4601280DD063
:102A3000012684F83C60022084F83D0042B1042A5B
:102A400018D0082A2AD00C2A4DD139E0022070BDB6
:102A5000206801F019F92068816941F0080181615D
:102A60002068816921F004018161206881692A69F7
:102A7000114311E0206801F037F92068816941F4C1
:102A8000006181612068816921F480618161206831
:102A900081692A6941EA0221816124E0206801F00C
:102AA00059F92068C16941F00801C1612068C16914
:102AB00021F00401C1612068C1692A69114311E054
:102AC000206801F07BF92068C16941F40061C161AF
:102AD0002068C16921F48061C1612068C1692A69E7
:102AE00041EA0221C16184F83D60002084F83C0085
:102AF00070BD10B5040003D094F83D0010B107E09C
:102B0000012010BD002084F83C00204600F00CF8A5
:102B1000022084F83D00211D206801F031F80120D9
:102B200084F83D00002010BD7047704710B5044682
:102B30000068012201F088F80B492068884202D021
:102B40000A49884203D1416C41F400414164206844
:102B5000816801F00701062903D0016841F00101F5
:102B60000160002010BD0000000001400004014091
:102B70000068B0F1804F01D1FFF768B97047704726
:102B80007047000070B5026804461068D168536948
:102B900010F00F0F52D003F0010501F490762E4390
:102BA0005FD0C20705D0CA0503D5E26B42F001022F
:102BB000E263420705D5DA0703D0E26B42F0020276
:102BC000E263820705D5DA0703D0E26B42F0040224
:102BD000E263020707D501F020022A4303D0E26B2B
:102BE00042F00802E263E26B002A33D0800604D58B
:102BF000880602D5204601F055F920684069E16B4E
:102C0000C0F38010090700D428B3204601F03CF936
:102C10002068416949061AD5416921F040014161A6
:102C2000606BA0B11B490165606BFEF7DBFE0028FD
:102C300010D0606B016DBDE870400847830610D569
:102C40008B060ED52046BDE8704001F02BB920461A
:102C5000FFF796FF70BD2046FFF792FF0020E0636C
:102C600070BD030606D50B0604D52046BDE87040AE
:102C700001F0F8B94006F3D54806F1D5D1682046F1
:102C800021F04001D160202184F8391000F0B5F91D
:102C900070BD0000793E000870B5040004D094F8BF
:102CA0003900002510B106E0012070BD84F83850CD
:102CB000204600F023F8242084F839002068C168F9
:102CC00021F40051C160204601F038F92068016903
:102CD00021F4904101612068416921F02A0141619C
:102CE0002068C16841F40051C160E563202084F888
:102CF000390084F83A00002070BD00002DE9F04F43
:102D000087B0054614216846FDF704FBAF48DFF89D
:102D1000B88210380222D5F800C00024AB4B032142
:102D2000DFF8ACB2960607154FF0010E4FF0080A17
:102D30004FF48079C4453BD1D3F800C04CF4002C4B
:102D4000C3F800C01B6803F400230593036843F035
:102D500001030360006800F0010005908DE8064063
:102D6000CDE9031A69465846FEF788FFDFF8688206
:102D700098494046C8F80010C0E90164C0E903471B
:102D8000C8F81440C0E90649C8F82040C8F82440F3
:102D9000FEF70AFF08B1FEF712FCC5F834800022E6
:102DA00005213420C8F83850FFF7D6F834205EE00B
:102DB000DFF82882C4455FD1D3F800C04CF4801CF2
:102DC000C3F800C01B6803F480130593036843F045
:102DD00004030360036803F004030593036843F0EE
:102DE0000803036000688B4600F0080005904FF46C
:102DF0008050CDE900020120CDE9020B90466946E2
:102E0000CDF810A07648FEF739FF0420CDE9000880
:102E10000120CDE9020B6946CDF810A07148FEF7FC
:102E20002DFFDFF8B4816B4908F160083039404666
:102E3000C8F80010C0E90164C0E90347C8F81440AD
:102E40004FF44031C8F81840C8E90791C8F8244049
:102E5000FEF7AAFE08B1FEF7B2FBC5F834800022E7
:102E600005213520C8F83850FFF776F83520FFF7F0
:102E700065F807B0BDE8F08FDFF86C814FF0070E02
:102E8000C44545D1514B1B1DD3F800C04CF0100C6C
:102E9000C3F800C01B6803F010030593036843F0F8
:102EA000010303600068CDE9024100F001000590D4
:102EB0004FF4C060CDE90002CDF810E069465846F5
:102EC000FEF7DCFEDFF81081484908F1C0084046F3
:102ED000C8F80010C0E90164C0E90347C8F814400D
:102EE0004FF40031C8F81840C8E90791C8F82440E9
:102EF000FEF75AFE08B1FEF762FBC5F834800022E7
:102F000005212520C8F83850FFF726F82520AEE720
:102F1000DFF8DC80C445ACD1D3F800C04CF4003CF1
:102F2000C3F800C01B6803F400330593036843F043
:102F300001030360036803F001030593036843F092
:102F4000080303600068904600F008000590032025
:102F5000CDE900A2CDE90240F2466946CDF810E085
:102F60005846FEF78BFE2020CDE900080320CDE96E
:102F700002406946CDF810A01A48FEF77FFE1549B9
:102F8000DFF8708048314046C8F80010C0E901649D
:102F9000C0E90347C8F814404FF44031C8F818405E
:102FA000C8E90791C8F82440FEF7FEFD08B1FEF716
:102FB00006FBC5F83480002205212620C8F83850C9
:102FC000FEF7CAFF262052E7004C0040403802407E
:102FD0000000024040600240D00900200050004044
:102FE00000080240000C0240001001404064024012
:102FF00000440040F00A002070477047FEE70000E0
:1030000070B50D4C0025C4F8B4520C48016821F08D
:1030100040410160016841F080410160C4F8BC5248
:10302000022004F52D7402F02FFD01202060022003
:1030300002F02AFD256070BD00804042000402407D
:1030400070B50D4C0025C4F8B4520C48016821F04D
:1030500040410160016841F0804101600126C4F8EF
:10306000BC62022004F52D7402F00EFD26600220E1
:1030700002F00AFD256070BD00804042000402405D
:103080002DE9F047814616480024016821F04041AF
:10309000016001680160134E254627464FF0010884
:1030A000C6F8B472022002F0EFFCC6F8B4826006E3
:1030B000040ED6F83C0208B1641CE4B2012002F010
:1030C000E3FC6D1CEDB2082DEAD3B9F1000F04D07A
:1030D000FFF796FF2046BDE8F087FFF7B1FFF9E75D
:1030E00000040240008040422DE9F04106461448A9
:1030F000016821F040410160016841F080410160B8
:10310000104C0027C4F8B4723D464FF00108F00996
:10311000C4F8BC027006060E022002F0B5FCC4F82A
:10312000B482022002F0B0FCC4F8B472022002F0B3
:10313000ABFC6D1CEDB2082DE9D3BDE8F0810000B9
:10314000000402400080404270B50D48016821F043
:1031500040410160016841F080410160094C01205B
:10316000C4F8BC02C4F8B402042004F52D7402F0C3
:103170008BFC0025A560042002F086FC256070BD54
:1031800000040240008040420E4810B5016821F062
:1031900040410160016841F0804101600A4C00201B
:1031A000C4F8B402C4F8BC02042004F52D7402F083
:1031B0006BFC01202060A060BDE81040042002F0FC
:1031C00063BC0000000402400080404270B5124819
:1031D0000024016821F040410160016801600F4D49
:1031E0000126C5F8BC62304602F04EFCC5F8B46258
:1031F000012002F049FC07E0641CE4B2FA2C03D978
:10320000FFF7C2FF012070BDD5F83C020028F3D1C2
:10321000C5F8B40270BD00000004024000804042C6
:1032200070B50546FFF790FF0F4C20784006000E62
:10323000FFF75AFFFFF7CAFF2846FFF755FFFFF7D2
:10324000C5FFFFF781FF2078012101EB4000C0B2EC
:10325000FFF74AFFFFF7BAFF0020FFF711FF044610
:10326000FFF792FF204670BD700000202DE9F0416D
:1032700016460D460746FFF767FF134C20784006B9
:10328000000EFFF731FFFFF7A1FF3846FFF72CFFD5
:10329000FFF79CFFFFF758FF2078012101EB40006A
:1032A000C0B2FFF721FFFFF791FF002406E00120E5
:1032B000FFF7E6FE641C05F8010BE4B2B442F6D356
:1032C000BDE8F041FFF760BF700000207FB500242B
:1032D00015480094019402941249039401604FF43C
:1032E0008031C0E901140461047680F820400F4960
:1032F000C0E90A140125C561C46080F83040456109
:10330000FEF77AFA08B1FEF75AF90A20CDE900056E
:10331000694602940448FEF7C9F9002801D0FEF777
:103320004EF97FBD00200140B40700200100000FCE
:103330001CB500240C4900940A4801940860084612
:10334000FEF7D5FA08B1FEF73AF90220CDE90040C0
:10335000002269460448FEF7A9FA002801D0FEF7CA
:103360002EF91CBD00740040FC070020194808B568
:10337000016841F400110160016801F4001100913D
:10338000016841F4800101600068002200F48000BF
:10339000009005210B20FEF7DFFD0B20FEF7CEFD90
:1033A000002205210D20FEF7D7FD0D20FEF7C6FDFA
:1033B000002205211020FEF7CFFD1020FEF7BEFDF4
:1033C000002205213A20FEF7C7FDBDE808403A205B
:1033D000FEF7B4BD3038024010B596B01C2211493A
:1033E0006846FCF77EFF0021684603F00FFD0E4C97
:1033F0000C491C2220601C3107A8FCF772FF002139
:1034000007A803F003FD074960601C2238310EA8AD
:10341000FCF767FF00210EA803F0F8FCA06016B0CF
:1034200010BD000024BE0008800100202DE9F04FEF
:1034300087B014216846FCF76DFF434800240168FB
:1034400041F004010160016801F004010591016887
:1034500041F080010160016801F08001059101687F
:1034600041F001010160016801F00101059101686D
:1034700041F010010160016801F01001059101683F
:1034800041F002010160016801F00201059101684B
:1034900041F0080101600068DFF8B09000F008001A
:1034A0004FF4D8450590012229464846FEF7C2FC54
:1034B000002208214846FEF7BDFCDFF894A0002258
:1034C00024215046FEF7B6FCDFF888B04FF42047C1
:1034D000012239465846FEF7ADFC4FF40078012230
:1034E00041461D48FEF7A6FC00950125CDE9015493
:1034F000694648460394FEF7C1FB08200326CDE940
:103500000005CDE9024669464846FEF7B7FB242090
:10351000CDE90005CDE9024669465046FEF7AEFB0F
:1035200000970396CDE9015469465846FEF7A6FB7D
:10353000CDF80080CDE90154694607480394FEF7B1
:103540009DFB07B0BDE8F08F303802400008024014
:103550000000024000040240000C024010B58CB094
:1035600024216846FCF7D6FE002416480994144925
:103570000A94C0E9001440F69F71C0E90241046159
:10358000446184610320CDE900040120CDE90204F7
:103590000494CDE90540079469460A480894FFF76A
:1035A000C9F808B1FEF70BF8099409A905480A946F
:1035B000FEF7C0FF002801D0FEF701F80CB010BDE7
:1035C000000001401008002010B58EB000240794C0
:1035D000089409940A940B941C2168460C94FCF7F7
:1035E00099FE2248204901605321C0E9011440F6A8
:1035F000C311C0E903148461FEF7E4FF08B1FDF7CD
:10360000DEFF4FF48050079007A91848FFF727F80E
:1036100008B1FDF7D4FF1548FFF76BFA08B1FDF7C5
:10362000CEFF0B940BA911480C94FEF783FF08B151
:10363000FDF7C5FF6020CDE9000402940022694631
:103640000A480494FFF7EDF908B1FDF7B8FF04222A
:1036500069460648FFF7E5F908B1FDF7B0FF0348F2
:10366000FFF79CF90EB010BD000400405008002088
:1036700010B58EB000240794089409940A940B9412
:103680001C2168460C94FCF745FE2A482849016035
:103690005321C0E9011440F6C311C0E90314846149
:1036A000FEF790FF08B1FDF78AFF4FF480500790B6
:1036B00007A92048FEF7D3FF08B1FDF780FF1D489A
:1036C000FFF717FA08B1FDF77AFF0B940BA9194819
:1036D0000C94FEF72FFF08B1FDF771FF6020CDE9D4
:1036E000000402940022694612480494FFF799F9F5
:1036F00008B1FDF764FF042269460E48FFF791F90F
:1037000008B1FDF75CFF082269460A48FFF789F90E
:1037100008B1FDF754FF0C2269460648FFF781F90E
:1037200008B1FDF74CFF0348FFF738F90EB010BDA4
:1037300000080040900800200C4810B50A490160BC
:103740004FF4E1314160002181600C22C160C0E989
:1037500004128161C161FFF79FFA002803D0BDE820
:103760001040FDF72CBF10BD004C0040D0080020D9
:103770000C4810B50A4901604FF4E1314160002165
:1037800081600C22C160C0E904128161C161FFF750
:1037900083FA002803D0BDE81040FDF710BF10BD2C
:1037A00000500040100900200C4810B50A49016083
:1037B0004FF4E1314160002181600C22C160C0E919
:1037C00004128161C161FFF767FA002803D0BDE8E8
:1037D0001040FDF7F4BE10BD00100140500900205C
:1037E0000C4810B50A4901600B4941600021816015
:1037F0000C22C160C0E904128161C161FFF74CFA7B
:10380000002803D0BDE81040FDF7D9BE10BD000070
:103810000044004090090020A0860100FEE77047A8
:1038200010B500211148FFF781F904210F48FFF777
:103830007DF900210E48FFF779F904210C48FFF7C4
:1038400075F908210A48FFF771F90C210848FFF7BC
:103850006DF900210846FDF7E1FE0023BDE81040A8
:103860001A4619461846FDF7ABBE00005008002066
:1038700090080020026800211180026851800268CF
:1038800091800268D180036803221A7203685A7219
:1038900002685181026891810268D18102681174C5
:1038A000026851740268518200688182704770B565
:1038B0008EB00646002502468DF80050012168466C
:1038C00001F018FB01F02AFA32460121042001F030
:1038D000D1FD044601F022FA84B90C208DF80200D3
:1038E00002208DF8030001208DF805508DF80400AA
:1038F00001463246684601F0C7FE04460EB0204637
:1039000070BD70B58EB00124064602468DF80040A9
:103910002146684601F0EEFA01F000FA3246022133
:10392000042001F0A7FD054601F0F8F995B90C2037
:103930008DF8020000208DF8060002208DF80300AB
:103940008DF807408DF8044032460121684601F0A9
:103950009BFE05460EB0284670BD0000204E214C4F
:1039600000253078F0B100210846FDF757FE00230E
:103970001A4619461846FDF723FE1B4F00224FF446
:1039800000613846FEF756FA012291033846FEF7E9
:1039900051FA002279151548FEF74CFA022003F07F
:1039A00029FADEE71248016812480A7E0068012AF7
:1039B00012D0217869B100BF90ED010A80ED080AAC
:1039C00090ED000A80ED070A90ED020A80ED090AE9
:1039D0002570FDF7E7FBE1E7012222700D76EBE7AA
:1039E000140100206401002000080240000C024085
:1039F00098000020E4000020084D094C05F086FDE9
:103A0000696906488847616905488847E16804484C
:103A10008847012003F0EEF9F0E70000980000204D
:103A2000E40000201D4E4FF002091D4D00274FF00D
:103A30000108341F05F0C0FE307840B92868407A8C
:103A4000032804D0012804D0022805D006E0B7716D
:103A500004E086F8068001E086F8069020780128C8
:103A600004D1687E032804D003202070287E18B17A
:103A700004E084F80090F9E7687E60B184F8008083
:103A8000064821780C3005F075FD05F0B5FE0220E2
:103A900003F0B0F9CEE72770F2E700001401002030
:103AA0009800002010B5502080F31188BFF34F8F8D
:103AB000BFF36F8F06F0CAF818B104494FF0805079
:103AC0000860002080F3118810BD000004ED00E0C4
:103AD00030B593B030216846FCF71CFC14210CA8CB
:103AE000FCF718FC1A480025016841F0805101607C
:103AF000006800F0805011901648016841F4804140
:103B000001600068022400F48040119001200090C0
:103B1000000401908001CDE90640192008904FF47F
:103B2000A870CDE9090404200B906846FEF752FB0B
:103B30000CA90F2081E831004FF4A0500F90E00253
:103B4000109005210CA8FEF739FA13B030BD000023
:103B500040380240007000400548016841F470019F
:103B6000016003494FF00060803908607047000031
:103B700088ED00E00148FEF75EBE0000500B00201B
:103B8000F0B50268254C264D264E274F274B4FF0A7
:103B9000804CA04209D0604507D0A84205D0B04271
:103BA00003D0B84201D0984204D122F0700E4A6886
:103BB00042EA0E02A0421BD0604519D0A84217D09D
:103BC000B04215D0B84213D0984211D0184DA84237
:103BD0000ED0184DA8420BD0174DA84208D0174D53
:103BE000A84205D0164DA84202D0164DA84203D1D6
:103BF00022F44075CA682A434D6922F080022A43A4
:103C000002608A68C2620A688262A04201D0984259
:103C100001D10969016301214161F0BD000001404A
:103C20000004004000080040000C00400004014077
:103C3000004001400044014000480140001800409D
:103C4000001C00400020004010B501F01F030121BE
:103C5000046A99408C430462016A9A4011430162EC
:103C600010BD10B5846842EA032224F47F440A435D
:103C70002243826010BD826822F070020A4342F043
:103C80000701816070470000F0B5026A22F001026E
:103C90000262036A42688469124E24F073050C685C
:103CA0002C4323F002058B682B430D4DA84201D015
:103CB000B04205D123F00807CB683B4323F004034F
:103CC000A84201D0B04205D14D6922F4407215439B
:103CD0008A692A4342608461496841630362F0BD96
:103CE0000000014000040140F0B5026A22F0100219
:103CF0000262026A436884690D6824F4E64444EA77
:103D000005248D6822F0200242EA05120F4D104E64
:103D1000A84201D0B04206D1CF6822F0800242EA28
:103D2000071222F04002A84201D0B04207D14D69EB
:103D300023F4406343EA85038D6943EA85034360C6
:103D40008461496881630262F0BD000000000140A7
:103D500000040140F0B5026A22F480720262026A35
:103D60004368C46922F4007224F073050C68124E93
:103D70002C438D6842EA05220E4DA84201D0B04284
:103D800006D1CF6822F4006242EA072222F4806260
:103D9000A84201D0B04207D14D6923F4405343EA11
:103DA00005138D6943EA05134360C4614968C16323
:103DB0000262F0BD000001400004014030B5026A1B
:103DC00022F480520262046A4268C3690D6823F4D7
:103DD000E64343EA05238D6824F4005444EA05349D
:103DE000084DA84202D0084DA84204D14D6922F4E2
:103DF000804242EA85124260C361496801640462FC
:103E000030BD0000000001400004014010B5036A0D
:103E1000046A24F001040462846924F0F00444EA92
:103E2000021423F00A020A438461026210BD10B535
:103E3000036A23F0100303628369046A23F4704366
:103E400043EA023224F0A00343EA011182610162D5
:103E500010BD00000148FEF795BE0000D00800200C
:103E600010B50448FDF79EFBBDE810400148FEF781
:103E700089BE00001009002010B5806B0021C185AB
:103E8000C184FEF77DFE10BD0168CA6822F49072FD
:103E9000CA6001684A6922F001024A61202180F863
:103EA0003A10704710B590F83A10222901D002203C
:103EB00010BD8168B1F5805F11D0016900290168EA
:103EC0001FD0496801F07F03816A4A1C82620B702F
:103ED000C18D491E0904090CC18518D02BE0026967
:103EE000816A002A0268526805D0D2B20A80816ACB
:103EF000491C8162ECE7C2F308020A80816A891CCE
:103F0000F7E74A68816A4B1C83620A70E0E7016840
:103F1000CA6822F02002CA600168CA6822F480726E
:103F2000CA6001684A6922F001024A61202180F8D2
:103F30003A10FFF761F8002010BD00002DE9F041B4
:103F4000044600680169E26821F4405111430161AF
:103F50002169A068E2690843616911430843216847
:103F6000CA6849F20C639A430243CA6020684169F7
:103F7000A26921F4407111434161E0691927642568
:103F80003226B0F5004F354A354920684FF0000819
:103F900006D0884201D0904236D1FEF7D9F835E0FC
:103FA000884201D0904202D1FEF7D2F801E0FEF73C
:103FB000BFF861684A18A0FB070148EB0803FCF74B
:103FC0005FF90146B0FBF5F00201B1FBF5F06FF0CF
:103FD0001803584301EB800006EBC000B0FBF5F07E
:103FE00000F0F80002EB4002B1FBF5F0584301EBA2
:103FF000800006EBC000B0FBF5F000F00700216880
:1040000010448860BDE8F081FEF792F861688B0F7C
:104010008A00A0FB0701FCF733F90146B0FBF5F07D
:104020006FF01802504301EB800006EB0010B0FB6C
:10403000F5F000F0F002B1FBF5F002EB0012B1FB7D
:10404000F5F06FF01803584301EB800006EB001009
:10405000B0FBF5F000F00F00D1E7000000140140C4
:104060000010014090F83910212901D0022070473A
:104070008168B1F5805F016A0BD04A1C0262026858
:1040800009785160C18C491E0904090CC1840ED005
:1040900017E009880268C1F308015160016900292D
:1040A000016A02D0491C0162ECE7891CFBE7016848
:1040B000CA6822F08002CA600068C16841F040010D
:1040C000C16000207047000010B50448FDF76AFA8F
:1040D000BDE810400148FEF755BD00005009002022
:1040E0000B4882B001680A684A680092CA6842F0C8
:1040F0001002CA6001684A6942F040024A610168E0
:10410000406B3223034A091D02B0FDF703BA0000D9
:1041100050090020080200207047000010B5044834
:10412000FDF740FABDE810400148FEF72BBD000046
:10413000900900200C4808B501680A684A68009296
:10414000CA6842F01002CA6001684A6942F040023F
:104150004A61122100910168044B406BA3F11802DF
:10416000091DFDF777F808BD9009002052020020D4
:1041700010B5054C01462046E2689047204621696B
:10418000BDE8104008470000980000200B4882B0AE
:1041900001680A684A680092CA6842F01002CA6060
:1041A00001684A6942F040024A610168406B642339
:1041B000034A091D02B0FDF7ADB90000D008002088
:1041C0006A020020704700000B4882B001680A684C
:1041D0004A680092CA6842F01002CA6001684A69DF
:1041E00042F040024A610168406BC823034A091D3E
:1041F00002B0FDF78FB9000010090020CE020020A8
:104200007047FEE703B401984100009850EAC120CE
:1042100018BF04204A0D18BF40F0010040F2FF72A1
:10422000B2EB515F08BF40F00200012808BF052033
:1042300002B070470907090E002804DB00F1E020F6
:1042400080F80014704700F00F0000F1E02080F8C3
:10425000141D7047BFF34F8F05480168054A01F4EC
:10426000E06111430160BFF34F8F00BFFDE7000025
:104270000CED00E00400FA0570B5C1482DED020B0D
:104280002DED0E8B82B0119D25F000449FEDBEDB1D
:104290009FEDBFEB84423EDBA4F140511098A1F1A9
:1042A0007F6108430FD0BC48844202DC28D11098BB
:1042B00030B39DED100B02B0BDEC0E8B02B0BDE82B
:1042C000704000F069BC9DED100B53EC1D2B51ECC0
:1042D000100BFCF72AF89DED100B41EC180B53EC7A
:1042E0001E2B51EC100BFCF720F853EC182BFCF7AD
:1042F00070F941EC100B02B0BDEC0E8B02B070BD3A
:10430000012000F08DFC02B0BDEC0E8B02B0BDE8C8
:10431000704000F055BCA1489FEDA18B844256DA55
:104320009DED100BB4F1795F0ADA51EC100BFFF739
:1043300069FF042808BF00F053FC9DED100BDAE77D
:1043400053EC102B51EC100BFBF7EFFF41EC190B6A
:1043500095480621B0EE490AF0EE690A784400F06B
:104360009FFB53EC192B51EC100BFBF7DEFF41ECDC
:104370001A0B8E48B0EE490AF0EE690A042178441F
:1043800000F08EFB53EC192B51EC100BFBF7CDFF1B
:1043900053EC182BFCF71DF941EC100B51EC1A0BE8
:1043A00053EC102BFCF7BCF9CDE900019DED000B9F
:1043B00053EC102B9DED100B51EC100BFBF7B5FFE0
:1043C0009DED101B53EC112BFCF703F9D2E09DED92
:1043D000100B51EC100B01F096FB53EC182BFCF773
:1043E0009CF99FED730BCDE9000153EC102B9DED73
:1043F000000B51EC100BFBF798FF41EC190B6E48CA
:104400000621B0EE490AF0EE690A784400F048FB54
:1044100053EC192B51EC100BFBF787FF41EC1B0BF6
:104420006648B0EE490AF0EE690A0421784400F0CB
:1044300037FB53EC192B51EC100BFBF776FF53ECC9
:10444000182BFCF7C6F841EC1C0B51EC190B05F0CE
:1044500009F841EC180B5A489FED5BABA04222DCF7
:1044600053EC1C2B51EC1B0BFCF75AF9CDE9000166
:104470009DED000B51EC180B53EC102BFBF755FF87
:1044800053EC182BFCF7A5F853EC1A2BFBF74DFF58
:1044900053EC1D2BFCF73EF953EC1E2BFCF73DF9BA
:1044A00041EC100B5FE08DED008B002000909DED46
:1044B000000B51EC180B53EC102BFCF78AF89DED18
:1044C000000B41EC1E0B53EC102B51EC100BFBF7C7
:1044D0002CFF53EC192BFCF720F953EC1E2BFCF7A7
:1044E0001FF941EC190B53EC1C2B51EC1B0BFCF787
:1044F00017F941EC1B0B53EC1A2B51EC190BFBF782
:1045000014FF53EC1D2BFCF708F941EC190B53EC8D
:104510001A2B51EC180BFBF708FF53EC1B2BFBF786
:1045200004FF53EC192BFCF7F5F89DED000B41EC63
:10453000180B53EC1A2B51EC100BFBF7F6FE9FED0A
:10454000249B53EC192BFCF7E8F841EC100B51ECD1
:10455000180B53EC102BFCF7DDF853EC192BFCF780
:10456000DCF841EC100B002D3FF7C5AE51EC100B01
:1045700081F0004141EC100BBDE60000000000009E
:104580000000F03F00000000075C143326A6913CB9
:10459000182D4454FB21F93F0000F07F0000E03F5C
:1045A000000000000000F03F387B0000467B000068
:1045B000000000000000E03F8A7A0000987A0000C6
:1045C0003333EF3F00000000000000000000004017
:1045D000182D4454FB21E93F70B59B482DED020B8B
:1045E0002DED068B079D25F00044A04218DC97486E
:1045F000844202DC0AD1069840B19DED060BBDEC69
:10460000068B02B0BDE8704000F0C6BA002DCCBFEA
:104610009FED8F0B9FED900BBDEC068B02B070BD34
:104620008F48A04215DD8F48A042D8BF4FF0FF341D
:1046300058DD9DED060B51EC100BFFF7E3FD042850
:1046400008BF00F0CDFA9DED060BBDEC068B02B065
:1046500070BD9DED060B51EC100B01F054FACDE945
:10466000060181489FED828BA0423CDD8248A0423A
:104670001FDD00249FED82AB9DED060B53EC1A2B42
:1046800051EC100BFBF7A5FF9DED060B41EC190B50
:1046900053EC1A2B51EC100BFBF747FE53EC182B85
:1046A000FCF738F853EC192BFCF73AF8CDE9060182
:1046B00049E09DED060B012453EC182B51EC100B37
:1046C000FBF787FF9DED060B41EC190B53EC182B04
:1046D00051EC100BFCF71EF853EC192BFCF720F8EB
:1046E000CDE906012FE06848A0421FDD02249FEDBE
:1046F000689B9DED060B53EC192B51EC100BFBF74F
:1047000014FE53EC182BFBF764FF9DED060B41ECF8
:10471000180B53EC192B51EC100BFBF7FBFF53EC70
:10472000182BFBF7FDFFCDE906010CE09DED060B14
:10473000032453EC102B9FED580B51EC100BFBF79F
:10474000EFFFCDE906019DED060B53EC102B51EC6C
:10475000100BFBF7EAFD41EC180B53EC182BFBF7A1
:10476000E4FD41EC190B4E480621B0EE490AF0EE8B
:10477000690A784400F094F953EC182B51EC100BB3
:10478000FBF7D3FD41EC180B4648B0EE490AF0EEBA
:10479000690A0521784400F083F953EC192B51EC98
:1047A000100BFBF7C2FD41EC100B51EC180B53EC56
:1047B000102B002C0EDAFBF70CFF9DED061B53ECC3
:1047C000112BFBF7B2FD9DED061B53EC112BFBF7F4
:1047D000A4FF35E0FBF7FDFE9DED061B53EC112B0E
:1047E000FBF7A3FD41EC100B2F48784400EBC4000D
:1047F00090ED001B51EC100B53EC112BFBF78AFFD3
:104800009DED061B53EC112BFBF784FF41EC100BC5
:104810002648784400EBC40090ED001B51EC100BCF
:1048200053EC112BFBF779FF41EC100B002DA2BFCD
:10483000BDEC068B02B070BD51EC100B81F0004155
:1048400041EC100B01E70000000010440000F07F75
:10485000182D4454FB21F93F182D4454FB21F9BF76
:104860000000DC3F0000203E0000F33F000000009D
:10487000000000000000F03F0000E63F00000000E4
:104880000000000000000040008003400000000025
:10489000000000000000F83F000000000000F0BF32
:1048A000DA770000907700001A770000D2760000D7
:1048B00070B56B4E2DED040B2DED028B82B0DDF843
:1048C0001CC0DDE905235C422CF000411C4341EA99
:1048D000D474049D22F00040B44205D86C422C43AD
:1048E00040EAD474B4420BD99DED061B9DED040B38
:1048F00002B0BDEC028B04B0BDE8704000F056B9C8
:10490000ACF14054A4F17F641C430BD0022404EAB0
:10491000AC7444EAD27405439FED538B9FED542B46
:1049200007D015E09DED040B51EC100B00F0B2F92F
:1049300042E0002C11BF012C9DED040B02B0BDEC38
:10494000028B04BF04B070BD022C38D0032C3BD0C6
:104950000B439FED491B9FED4A0B0AD0B14218D182
:10496000B04209D121F0804120F0804007910590AC
:104970000FE0002A15DA10E0434B7B44002C08BFFF
:1049800093ED000B0DD0012C10D0022C17D0032C6E
:104990001AD0B0421DD1002A03DAB0EE410AF0EE7F
:1049A000610A02B0BDEC028B04B070BD93ED000B48
:1049B00051EC100B81F0004141EC100BF1E7B0EE2F
:1049C000480AF0EE680AECE7B0EE420AF0EE620A3E
:1049D000E7E7401A00153C28C8BF8DED000B19DC35
:1049E000BCF1000FBEBF10F13C0F9FED290B8DED08
:1049F000000B0FDB9DED060B53EC102B9DED040B14
:104A000051EC100BFBF78CFE01F07DF800F042F941
:104A1000CDE90001002C08BF9DED000BC1D0012C99
:104A200010D0022C9FED1C0B53EC102B9DED000BB6
:104A300051EC100B0DD0FBF76DFE53EC182BFBF770
:104A400069FEB9E7019880F0004001909DED000BF0
:104A5000A7E7FBF75FFE53EC182BFBF75EFEABE717
:104A60000000F07F00000000182D4454FB21094095
:104A7000182D4454FB2109C0182D4454FB21F9BFC3
:104A8000182D4454FB21F93F02760000000000007D
:104A90000000000000000000075C143326A6A13CC3
:104AA00070B504462DED028B4D1E00EBC500B0EE37
:104AB000408AF0EE608A90ED000B35F0060017D0CA
:104AC00053EC182B51EC100BFBF72FFC41EC100BA7
:104AD0006D1E04EBC50090ED001B51EC100B53EC68
:104AE000112BFBF776FD41EC100B35F00600E7D1FA
:104AF000022D36D0042D1CD0062D1CBFBDEC028B20
:104B000070BD53EC182B51EC100BFBF70EFC94ED21
:104B10000A1B53EC112BFBF75CFD53EC182BFBF736
:104B200004FC94ED081B53EC112BFBF752FD41ECF8
:104B3000100B53EC182B51EC100BFBF7F6FB94ED1C
:104B4000061B53EC112BFBF744FD53EC182BFBF722
:104B5000ECFB94ED040B53EC102BFBF73AFD41EC0E
:104B6000100B53EC182B51EC100BFBF7DEFB94ED04
:104B7000021B53EC112BFBF72CFD53EC182BFBF70E
:104B8000D4FB94ED001B53EC112BFBF722FDBDEC85
:104B9000028B41EC100B70BD10B553EC102B51EC97
:104BA000100BFBF716FD41EC100B10BD10B553ECCC
:104BB000112B51EC100BFBF70CFD41EC100B10BD51
:104BC0009FED050B10B553EC102B51EC100BFBF7C0
:104BD000A7FD41EC100B10BD00000000000000001C
:104BE0009FED050B10B553EC102B51EC100BFBF7A0
:104BF0009CFB41EC100B10BD0000000000000010F9
:104C000002E008C8121F08C1002AFAD17047704795
:104C1000002001E001C1121F002AFBD170470000F3
:104C20000149086070470000040200200349022087
:104C30000870012080F31388FFF70CFB140100209B
:104C4000054910B5012008700448FEF713FEBDE8C1
:104C50001040FCF7EFBC0000140100209800002079
:104C60000648002201210378012B03D14170017114
:104C7000427182710270417104F02CBC1401002059
:104C8000034903200870012080F31388FFF7E2FA3C
:104C90001401002010B541EC100BFFF79DFC51EC06
:104CA000100B10BD10B504004FF0FF3030D0A16CD8
:104CB00000292DD0E16C00292AD0216D002927D0B0
:104CC000242020704FF40050A4F85A000320A4F8C8
:104CD0005800607A20B10020E072206910B103E032
:104CE0000120F9E70B482061204600F0FFFB002877
:104CF0000ED10948E0613030206208202075102074
:104D000060750720A0752046BDE8104000F072B81D
:104D100010BD0000DE9D0008DEBD00087047F0B544
:104D2000044600231846557D11E0D66903EB43077E
:104D3000F65D8E4209D1D06903EB43010844018836
:104D400021808078A0700120F0BD5B1CDBB29D4209
:104D5000EBD8F0BD2DE9F7434FF0000514465FEAAC
:104D600001094FF010064FF030082F4626D02CB323
:104D7000207D9DF80010884239D9134601226946EA
:104D80002F2000F033FC00281AD1E089102827D208
:104D9000C10701D0401EE081E28909EB0701B24260
:104DA00023460FD8404600F05BF8A17BCA19D7B262
:104DB00001EB080202F0FF08294408E04FF0FF3041
:104DC000BDE8FE833246404600F04AF8A919CDB24C
:104DD000C5F11001CEB20028F2D1002EDCD1EFE7F0
:104DE000234610224946302000F03AF8E8E76FF0F9
:104DF0000900E5E71FB50446002094F8581089071C
:104E000005D5204601F0EAFF18B14FF0FF3004B09D
:104E100010BD28208DF8000022460121684600F0D0
:104E200086F90028F3D1BDF80410A4F85410EEE779
:104E300070B505460C46084601F0D0FF68B965B16B
:104E4000226D44F620606168904723462946BDE8FC
:104E500070400122212000F003B84FF0FF3070BDF8
:104E60002DE9F05F824617468B461C460025184602
:104E700001F0B4FF060037D1BBF1000F34D0E07A67
:104E8000384480B2804601F061FF8146607A08B9FB
:104E90004AF0800A94F85700D4F848C001286368A3
:104EA0004246494650460DD0E047A072226D14207C
:104EB00061689047A07AA0B16FF00106484600F003
:104EC00065FE13E0E047A0724FF4E170226D616867
:104ED000EFE7E17A09EB0500095C0BF805106D1CA2
:104EE000ADB2BD42F5D3E9E74FF0FF363046BDE83D
:104EF000F09F00002DE9F047044686B088469246B0
:104F0000104601F06BFF002875D1002C73D09AF881
:104F1000577000266FF00709F6E000BF06EB860029
:104F200000EBC60514F82500042801D2022807D199
:104F3000012F05D15146002000F026FB002870D13A
:104F400014F825001D286DD2DFE800F00F161D248F
:104F50002B32404040474E565D646D747B82899091
:104F600097A59EACD2646464390004EB8500514679
:104F7000801C00F043FEC1E004EB85005146801C1C
:104F800001F00DF8BAE004EB85005146801C00F0FA
:104F9000D5FEB3E004EB85005146801C01F0C6FA53
:104FA000ACE004EB85005146801C00F082FEA5E0D9
:104FB00004EB85005146801C01F06DF99EE004EB86
:104FC00085005146801C01F055FB97E004EB8500FD
:104FD0005146801C01F009FB90E004EB850051462E
:104FE000801C01F044F889E004EB85005146801CE8
:104FF00001F0CCFB82E095E004EB85005146801C7B
:1050000001F0F0FB7AE004EB85005146801C00F0D3
:105010009AFF73E004EB85005146801C01F00EFC02
:105020006CE081E06CE004EB85005146801C01F0EF
:105030000CFA63E004EB85005146801C01F090F807
:105040005CE004EB85005146801C01F0DBF855E084
:1050500004EB85005146801C00F0F1FE4EE004EBAD
:1050600085005146801C00F0BEFE47E004EB850041
:105070005146801C01F020FC40E004EB85005146C5
:10508000801C01F099FC39E004EB85005146801C3E
:1050900001F04DFC32E004EB85005146801C01F02C
:1050A000D2FC2BE0002004EB8505009001900290DB
:1050B000039004905246172104A8AD1CFFF72FFE61
:1050C000F0B19DF8110052466946FFF743FEF0B972
:1050D0009DF812101DF8011001F001022A70C1F3B1
:1050E00041026A70C1F38012EA70C909297109E0AE
:1050F00004EB85005146801C00F0E4FE38B901E065
:10510000484604E0761CF6B24645FFF407AF012F8F
:105110000AD1002808D106B05146BDE8F047012069
:1051200000F032BA4FF0FF3006B0BDE8F0872DE94D
:10513000F74F86B082468B46089801F04FFE040078
:1051400078D1BAF1000F75D0089800276FF00706E4
:1051500090F8579050E10AEB07152878042807D3F8
:10516000B9F1010F04D10020089900F00DFA0446AE
:10517000002C52D128780F2870D00FDC072871D06E
:1051800005DCE0B101282ED0022869D146E00828CC
:105190006DD0092877D00E28F7D179E0262873D072
:1051A00006DC132871D01628FCD02028EDD10FE1A1
:1051B00027286BD028286AD02D28E6D10DE105F1EB
:1051C00004080021089D009101910C202B46062225
:1051D0006946FFF745FE20B96946404600F0FEFCEF
:1051E00017E004460EE105F104080021089D009136
:1051F000019112202B4606226946FFF731FE002856
:10520000EFD16946404600F0E9FC2946404600F0EF
:10521000C0FB2946404601F05EF9D0E005F10408E4
:105220000025089B00950195D87D2C4618B16FF09C
:105230000D00D6E7E4E0082269460420FFF710FEDF
:105240000028CED169460B5D08F80530641C6D1C42
:10525000EDB2E4B2082DF6D30446B0E03DE001E043
:1052600089E004E0281D089901F059FA56E0002071
:1052700005F10408089D00900190029003902A46D1
:105280000821049089E045E04BE07BE04EE09AE0A5
:105290000020DDF82080009001900290039004909F
:1052A00042460E2104A82D1D00F012FC002862D0F9
:1052B0009DF8110042466946FFF74CFD002890D149
:1052C0009DF812001DF8002002F003022A701DF85C
:1052D0000000C0F38000687071E00020DDF82080DD
:1052E0000090019002900390049042460F2104A880
:1052F0002D1D00F0EDFBF0B39DF81100424669460C
:10530000FFF728FD002894D19DF812001DF8000039
:10531000287054E0281D089900F0EEFE040071D1B9
:105320004DE0281D089900F0FBFFF7E70020DDF8AD
:105330002080009001900290039004904246272123
:1053400004A82D1D00F0C4FBA8B19DF81100424631
:105350006946FFF7FFFC0028B1D19DF81200401C00
:10536000C0B21DF80020C2F340122A701DF80020C0
:10537000C2F3801200E035E06A701DF80000C00939
:10538000A8701CE0002005F10408089D0090019021
:10539000029003902A461321049004A800F098FB81
:1053A00000B39DF811002A466946FFF7D3FC002898
:1053B00085D19DF812001DF8001088F80010B9F191
:1053C000010F11D016E0281D089900F017FEA5E77F
:1053D000281D089900F039FCA0E7281D089900F065
:1053E000DAFF9BE734460DE024B90120089900F06C
:1053F000CBF804467F1CFFB25F45FFF4ACAE01E082
:105400004FF0FF3409B02046BDE8F08F70B5044678
:105410000D46084601F0E2FC40B93CB12B4621465E
:10542000BDE8704001220320FFF71ABD4FF0FF30A6
:1054300070BD0000002188B101220A4B427269222E
:105440005A70094A8264094AC2645A1C4260084A76
:1054500002650822C2810022026101E04FF0FF31A3
:105460000846704770000020A9960008CD960008F5
:10547000A5960008F8B504460007060E00200D4664
:1054800017468DF800001346012269465820FFF7A1
:10549000E7FC002821D1042D24D2200744EA106023
:1054A00035B1012D0AD0022D0CD0032D0FD115E0FE
:1054B0009DF8001081438DF8001008E09DF8000071
:1054C000204302E09DF8000030438DF800003B4689
:1054D00001226946582000F089F8F8BD9DF80010B7
:1054E0000843F2E76FF00B00F8BD00003EB504463C
:1054F000164900208DF80000D1E90001CDE9010135
:10550000204601F06BFC00281BD1204600F0AFF9CB
:10551000002816D1234601226946FFF7A1FC002886
:105520000FD122789DF800108A420BD110212173EF
:105530000121E1750199C4F83510BDF80810A4F8EF
:1055400039103EBD21706FF002003EBDD89D0008AD
:105550007CB504460020CDE900000E4615461046F5
:1055600001F03CFC68B964B16A463146204601F05E
:10557000BDFF002804D1DDE900012A4602F05EF8F3
:105580007CBD4FF0FF307CBDF8B5064600208DF89D
:1055900000000D46084601F021FC040023D12B46F3
:1055A000012269467C20FFF75BFC04001BD19DF8BB
:1055B00000002B4666F300008DF8000001226946CA
:1055C0007C2000F013F804462A6D4FF4FA706968E5
:1055D000904714B16FF00C0405E09DF8000000F056
:1055E000010085F857002046F8BD00002DE9F0477E
:1055F0000746914688461C460025184601F0EEFBFA
:1056000006003CD1B8F1000F39D0607A08B907F034
:105610007F0794F85700012822D0E56C4A4641469E
:1056200038466368A847A072226D142061689047CD
:105630007C2F18D01EE000BF7819D4F84CC008EBBE
:105640000501C0B201226368E047A072226D4FF4E9
:10565000E17061689047A07A0028E9D16D1CADB275
:105660004D45E9D3E4E798F80000C00700D00120D9
:1056700084F85700A07A20B16FF0010601E04FF0E6
:10568000FF363046BDE8F0872DE9F04104460F466D
:105690009046104601F0A2FB002873D1002C71D077
:1056A00098F857600025D1E0012E05D14146002031
:1056B000FFF76AFF002874D105EB850000EBC500F9
:1056C00014F820101D296DD2DFE801F00F161D32ED
:1056D000242B404040474E555D646D747B82899019
:1056E00097A59EACB3646464390004EB8000414626
:1056F000801C02F085F9A2E004EB80004146801C8A
:1057000002F034FD9BE004EB80004146801C02F077
:105710007EFA94E004EB80004146801C02F014FA0B
:105720008DE004EB80004146801C02F06FFF86E0B4
:1057300004EB80004146801C03F0D5F87FE004EBC9
:1057400080004146801C03F0E5F978E004EB80001E
:105750004146801C03F07EF971E004EB8000414675
:10576000801C02F0B1FD6AE004EB80004146801C21
:1057700003F0BFFA63E004EB80004146801C03F0B5
:1057800055FB5CE06FE004EB80004146801C02F0BA
:105790007BFC54E004EB80004146801C03F0B8FB26
:1057A0004DE062E04DE004EB80004146801C02F0D9
:1057B00090FF44E004EB80004146801C02F002FEB2
:1057C0003DE004EB80004146801C02F095FE36E08F
:1057D00004EB80004146801C02F079FB2FE004EBD3
:1057E00080004146801C02F0CBFA28E004EB8000E8
:1057F0004146801C03F0EAFB21E004EB80004146B7
:10580000801C03F023FD1AE004EB80004146801C5D
:1058100003F037FC13E004EB80004146801C03F0EA
:10582000A4FD0CE004EB80004146801C02F0DFFF89
:1058300005E004EB80004146801C02F0D1FB40B93A
:1058400002E06FF0070004E06D1CEDB2BD42FFF412
:105850002BAF012E09D1002807D14146BDE8F04108
:105860000120FFF791BE4FF0FF30BDE8F0817CB51D
:105870000546B6208DF8000000208DF8040028466B
:1058800001F0ACFA040020D12B46012269467E20AB
:10589000FFF7ACFE04462A6D4FF4FA606968904742
:1058A000012085F8570084B9687A38B92B4601225F
:1058B00001A90020FFF7D4FA040006D1284600F021
:1058C00006F8040001D1C5E9100020467CBD38B5BA
:1058D000044600208DF80000204601F07FFAF0B960
:1058E000B4F85A00D8B1E089C10701D0401EE08168
:1058F00080B2022801D20220E081204604F062F842
:1059000000280BD121466846FFF792FA9DF8001057
:1059100001F00101014301D16FF0080038BD4FF0E3
:10592000FF3038BD08B50346012269461B20FFF74A
:1059300097FA00280ED19DF80010C1F382018DF86E
:105940000010002906D0012905D0022906D003291C
:1059500000D1C01F08BD6FF0040008BD6FF0050046
:1059600008BD30B5002480B105788D4204D20170A5
:10597000197A41F0010119720178914207D9027038
:10598000187A40F00200187201E04FF0FF34204610
:1059900030BDB1F85410828811FB02F10288CB1798
:1059A00001EBD351A2EB6121018070472DE9FC414D
:1059B0004FF0000805460C460B46CDF800808DF8E8
:1059C00004804746022269464B20FFF749FA060049
:1059D00032D1E9799DF8000042F2107661F3470078
:1059E0008DF8000069789DF8010061F3C7108DF80B
:1059F0000100A97861F386108DF80100E97861F360
:105A000083008DF80100297961F301008DF8010010
:105A1000214601A8FFF7FAFC9DF8041001F00401EB
:105A200001430CD0226D3046616890477F1CFFB265
:105A3000142FEDD96FF00E063046BDE8FC812346E9
:105A4000022269464B20FFF7D1FD06464FF47A77D4
:105A5000226D384661689047002EEDD1687820B1FC
:105A60000120E075E8782076E6E784F81780234681
:105A7000012205F108014D20FFF7B8FD0646226D11
:105A8000384661689047D7E770B5054601F094F94C
:105A90004FEA000401F090F9001BA842FAD370BD50
:105AA00010B50068016841F4002101600148FEF76B
:105AB0005FFB10BD3A02002010B50068016821F4B8
:105AC000002101600148FEF753FB10BD5202002087
:105AD000F0B5044600231846957D11E0166A03EBE5
